:020000040800F2
:100000008006002089010008910100089301000882
:100010009501000897010008990100080000000000
:100020000000000000000000000000009B0100082C
:100030009D010008000000009F010008A1010008C8
:10004000A3010008A3010008A3010008A301000800
:10005000A3010008A3010008A3010008A3010008F0
:10006000A3010008A3010008A3010008A3010008E0
:10007000A3010008A3010008A3010008A3010008D0
:10008000A3010008A3010008A3010008A3010008C0
:10009000A3010008A3010008A3010008A3010008B0
:1000A000A3010008A3010008A3010008A3010008A0
:1000B000A301000869060008A3010008A3010008C5
:1000C000A3010008A3010008A3010008A301000880
:1000D000A3010008A3010008A3010008A301000870
:1000E000A3010008A3010008A301000800F002F822
:1000F00000F03AF80AA090E8000C82448344AAF188
:100100000107DA4501D100F02FF8AFF2090EBAE885
:100110000F0013F0010F18BFFB1A43F0010318473B
:10012000B8080000D8080000103A24BF78C878C189
:10013000FAD8520724BF30C830C144BF04680C60ED
:10014000704700000023002400250026103A28BF35
:1001500078C1FBD8520728BF30C148BF0B60704739
:100160001FB51FBD10B510BD00F031F81146FFF7E7
:10017000F7FF00F069FB00F04FF803B4FFF7F2FF60
:1001800003BC00F059F800000948804709480047BF
:10019000FEE7FEE7FEE7FEE7FEE7FEE7FEE7FEE737
:1001A000FEE7FEE704480549054A064B7047000094
:1001B00009060008ED0000088000002080060020ED
:1001C000800200208002002070477047704775460B
:1001D00000F02CF8AE4605006946534620F00700B3
:1001E000854618B020B5FFF7DDFFBDE820404FF091
:1001F00000064FF000074FF000084FF0000B21F011
:100200000701AC46ACE8C009ACE8C009ACE8C009DD
:10021000ACE8C0098D46704710B50446AFF30080C6
:100220002046BDE81040FFF7A8BF00000048704717
:100230001C0000207047000001491820ABBEFEE7FB
:100240002600020008B510208DF8030003208DF869
:1002500002003F20ADF800006946044800F00AF8AB
:100260000121034800F092F808BD00000008014099
:10027000000230002DE9F041024600250026002052
:1002800000230024002791F803C00CF00F0591F81B
:1002900003C00CF0100CBCF1000F03D091F802C0A9
:1002A0004CEA050591F800C0BCF1000F31D014688C
:1002B00000202BE04FF0010C0CFA00F3B1F800C065
:1002C0000CEA03069E4220D183004FF00F0C0CFA7B
:1002D00003F7BC4305FA03FC4CEA040491F803C09D
:1002E000BCF1280F06D14FF0010C0CFA00FCC2F84B
:1002F00014C00AE091F803C0BCF1480F05D14FF0DB
:10030000010C0CFA00FCC2F810C0401C0828D1D324
:100310001460B1F800C0BCF1FF0F34DD5468002058
:100320002EE000F1080C4FF0010808FA0CF3B1F8C8
:1003300000C00CEA03069E4221D183004FF00F0C4F
:100340000CFA03F7BC4305FA03FC4CEA040491F8E9
:1003500003C0BCF1280F05D100F1080C08FA0CF815
:10036000C2F8148091F803C0BCF1480F07D100F126
:10037000080C4FF0010808FA0CF8C2F81080401C75
:100380000828CED35460BDE8F0810000F0B50A46DD
:10039000002300240021002500F00046B6F1004FA4
:1003A00002D11D4EF16901E01B4E7168C0F3034597
:1003B00083B200F44016B6F5401F08D121F07061F9
:1003C000154E766826F07066134F7E6012E000F4DA
:1003D0008016B6F5801F06D1032606FA05F4A14360
:1003E00041F0706106E0460D360103FA06F6B143AE
:1003F00041F0706122B1460D360103FA06F6314331
:1004000000F00046B6F1004F02D1034EF16101E069
:10041000014E7160F0BD0000000001404161704775
:100420000161704770B5002100230F22C47804B326
:10043000154C246804F4E064C4F5E064210AC1F1B9
:100440000403CA40447804FA03F184781440214339
:1004500009010E4C0678A155047804F01F0501240B
:10046000AC4005786D11AD0005F1E025C5F80041FF
:1004700009E0047804F01F050124AC40044D06781F
:10048000761145F8264070BD0CED00E000E400E078
:1004900080E100E002490143024A11607047000018
:1004A0000000FA050CED00E029B1064AD2690243CA
:1004B000044BDA6104E0034AD2698243014BDA61FA
:1004C000704700000010024029B1064A92690243B9
:1004D000044B9A6104E0034A92698243014B9A619A
:1004E000704700000010024010B501210520FFF701
:1004F000EBFF01210220FFF7D7FF10BD10B500F080
:1005000001F810BD0CB50020019000903348006840
:1005100040F480303149086000BF3048006800F482
:10052000003000900198401C0190009818B9019883
:10053000B0F5A06FF1D12948006800F4003010B187
:100540000120009001E0002000900098012843D194
:100550002348006840F01000214908600846006800
:1005600020F0030008600846006840F002000860C0
:100570001A4840681949486008464068486008467B
:10058000406840F4806048600846406820F47C1071
:1005900048600846406840F4E81048600846006833
:1005A00040F08070086000BF0C48006800F00070E8
:1005B0000028F9D00948406820F003000749486046
:1005C0000846406840F00200486000BF03484068A9
:1005D00000F00C000828F9D10CBD0000001002400A
:1005E0000020024010B501210520FFF76DFF012119
:1005F0000220FFF759FFFFF777FFFFF723FE00F018
:1006000064F900F0C9F910BD10B51348006840F056
:1006100001001149086008464068104908400E4929
:100620004860084600680E4908400B4908600846C3
:10063000006820F4802008600846406820F4FE002E
:1006400048604FF41F008860FFF758FF4FF00060CC
:100650000449086010BD0000001002400000FFF8CF
:10066000FFFFF6FE08ED00E010B50121264800F07E
:1006700057F826480078F8B92548006848B920217D
:100680002448FFF7CDFE22480068401C204908603E
:1006900039E020211F48FFF7C1FE1D480068401CBB
:1006A0001B490860084600681B49096888422AD32C
:1006B00000201749086026E01848006818B314485D
:1006C000006870B920211348FFF7AAFE104800689F
:1006D000401C0F49086011480068401E0F4908601F
:1006E00011E020210B48FFF799FE09480068401CE3
:1006F000074908600846006807490968884202D32C
:1007000000200349086010BD0004004000000020E4
:1007100004000020000801400C000020140000200C
:10072000CA430282704721B1028842F0010202806E
:1007300004E002884FF6FE731A40028070471AB137
:1007400083890B43838102E083898B4383817047D4
:10075000002202881D4B98420ED01D4B98420BD0B0
:10076000B0F1804F08D01B4B984205D01A4B9842ED
:1007700002D01A4B984204D14FF68F731A404B881F
:100780001A43174B984207D0164B984204D04FF6A5
:10079000FF431A40CB881A4302808B8883850B88DD
:1007A00003850A4B98420BD0094B984208D00E4B58
:1007B000984205D00D4B984202D00D4B984201D182
:1007C0000B7A03860123838270470000002C0140CE
:1007D000003401400004004000080040000C0040CC
:1007E000001000400014004000400140004401405F
:1007F0000048014010B5044603E04FF47A7000F061
:1008000005F8201EA4F10104F7D110BD06E0072170
:1008100000BF0A1EA1F10103D9B2FAD1021EA0F154
:100820000100F4D17047000010B501210148FFF725
:10083000F7FD10BD0008014010B501210148FFF788
:10084000EDFD10BD00080140FFF7CCFE4FF4FA703B
:1008500000F07AF84FF47A70FFF7CCFFC8214FF41C
:100860007A7000F087F84FF47A70FFF7C3FF00202A
:1008700000F03EF8C8214FF4967000F07BF84FF47A
:100880007A70FFF7B7FF4FF4FA7000F05DF84FF49D
:100890007A70FFF7AFFF17E0C8214FF47A7000F0CD
:1008A00069F8002000F024F84FF4FA70FFF7A2FF77
:1008B000C8214FF47A7000F05DF8012000F018F8BC
:1008C0004FF4FA70FFF796FFE6E708B54FF4C06003
:1008D000FFF7E0FD1D208DF8000001208DF80100DC
:1008E0008DF802008DF803006846FFF79BFD08BDF8
:1008F00010B5044624B110210448FFF78FFD03E032
:1009000010210248FFF78CFD10BD000000080140D7
:1009100070B504460D4601200849087014B9FFF768
:1009200083FF09E042F21070B0FBF4F00449086064
:1009300004480560FFF780FF70BD00000000002044
:100940000C0000201400002010B5044600200749C8
:10095000087014B9FFF768FF07E042F21070B0FBAF
:10096000F4F003490860FFF767FF10BD00000020A6
:100970000C00002070B504460D4629462046FFF7BE
:10098000C7FF02E00A20FFF735FF02480068002891
:10099000F8D170BD140000200EB56320ADF804003E
:1009A0004720ADF800000020ADF80600ADF80200C9
:1009B00069460848FFF7CCFE01210648FFF7B0FE64
:1009C000012211460348FFF7BAFE01210148FFF753
:1009D000AAFE0EBD00040040F80900080000002037
:1009E0001C00000028010008140A00081C00002058
:1009F0006406000044010008000000000000000040
:100A000000000000E8030000E80300000000000010
:040A100000000000E2
:040000050800018965
:00000001FF
